{
  "contractName": "SmartBank",
  "abi": [
    {
      "inputs": [
        {
          "internalType": "address",
          "name": "_uniswap",
          "type": "address"
        },
        {
          "internalType": "address",
          "name": "_comp",
          "type": "address"
        },
        {
          "internalType": "address",
          "name": "_weth",
          "type": "address"
        }
      ],
      "stateMutability": "nonpayable",
      "type": "constructor"
    },
    {
      "anonymous": false,
      "inputs": [
        {
          "indexed": true,
          "internalType": "address",
          "name": "depositor",
          "type": "address"
        },
        {
          "indexed": false,
          "internalType": "string",
          "name": "symbol",
          "type": "string"
        },
        {
          "indexed": false,
          "internalType": "uint256",
          "name": "amountDeposited",
          "type": "uint256"
        }
      ],
      "name": "depositERC20Token",
      "type": "event"
    },
    {
      "anonymous": false,
      "inputs": [
        {
          "indexed": true,
          "internalType": "address",
          "name": "_from",
          "type": "address"
        },
        {
          "indexed": false,
          "internalType": "uint256",
          "name": "amountDeposited",
          "type": "uint256"
        }
      ],
      "name": "depositETH",
      "type": "event"
    },
    {
      "anonymous": false,
      "inputs": [
        {
          "indexed": true,
          "internalType": "address",
          "name": "_to",
          "type": "address"
        },
        {
          "indexed": false,
          "internalType": "string",
          "name": "symbol",
          "type": "string"
        },
        {
          "indexed": false,
          "internalType": "uint256",
          "name": "amountWithdrawn",
          "type": "uint256"
        }
      ],
      "name": "withdrawERC20Token",
      "type": "event"
    },
    {
      "anonymous": false,
      "inputs": [
        {
          "indexed": true,
          "internalType": "address",
          "name": "depositor",
          "type": "address"
        },
        {
          "indexed": false,
          "internalType": "uint256",
          "name": "amountWithdrawn",
          "type": "uint256"
        }
      ],
      "name": "withdrawETH",
      "type": "event"
    },
    {
      "inputs": [],
      "name": "depositAmountInETH",
      "outputs": [
        {
          "internalType": "uint256",
          "name": "",
          "type": "uint256"
        }
      ],
      "stateMutability": "view",
      "type": "function",
      "constant": true
    },
    {
      "inputs": [],
      "name": "erc20TokenRedeemed",
      "outputs": [
        {
          "internalType": "uint256",
          "name": "",
          "type": "uint256"
        }
      ],
      "stateMutability": "view",
      "type": "function",
      "constant": true
    },
    {
      "inputs": [],
      "name": "redeemed",
      "outputs": [
        {
          "internalType": "uint256",
          "name": "",
          "type": "uint256"
        }
      ],
      "stateMutability": "view",
      "type": "function",
      "constant": true
    },
    {
      "inputs": [],
      "name": "totalContractBalance",
      "outputs": [
        {
          "internalType": "uint256",
          "name": "",
          "type": "uint256"
        }
      ],
      "stateMutability": "view",
      "type": "function",
      "constant": true
    },
    {
      "inputs": [],
      "name": "transferAmountERC20",
      "outputs": [
        {
          "internalType": "uint256",
          "name": "",
          "type": "uint256"
        }
      ],
      "stateMutability": "view",
      "type": "function",
      "constant": true
    },
    {
      "stateMutability": "payable",
      "type": "receive",
      "payable": true
    },
    {
      "inputs": [],
      "name": "addBalance",
      "outputs": [],
      "stateMutability": "payable",
      "type": "function",
      "payable": true
    },
    {
      "inputs": [],
      "name": "getContractBalance",
      "outputs": [
        {
          "internalType": "uint256",
          "name": "",
          "type": "uint256"
        }
      ],
      "stateMutability": "view",
      "type": "function",
      "constant": true
    },
    {
      "inputs": [
        {
          "internalType": "address",
          "name": "erc20TokenAddress",
          "type": "address"
        },
        {
          "internalType": "uint256",
          "name": "amountToDeposit",
          "type": "uint256"
        }
      ],
      "name": "addBalanceERC20",
      "outputs": [
        {
          "internalType": "bool",
          "name": "",
          "type": "bool"
        }
      ],
      "stateMutability": "payable",
      "type": "function",
      "payable": true
    },
    {
      "inputs": [
        {
          "internalType": "address",
          "name": "erc20TokenAddress",
          "type": "address"
        }
      ],
      "name": "getAllowanceERC20",
      "outputs": [
        {
          "internalType": "uint256",
          "name": "",
          "type": "uint256"
        }
      ],
      "stateMutability": "view",
      "type": "function",
      "constant": true
    },
    {
      "inputs": [
        {
          "internalType": "address",
          "name": "erc20TokenAddress",
          "type": "address"
        },
        {
          "internalType": "uint256",
          "name": "swapAmount",
          "type": "uint256"
        }
      ],
      "name": "swapExactTokensforETH",
      "outputs": [
        {
          "internalType": "uint256",
          "name": "",
          "type": "uint256"
        }
      ],
      "stateMutability": "payable",
      "type": "function",
      "payable": true
    },
    {
      "inputs": [
        {
          "internalType": "address",
          "name": "erc20TokenAddress",
          "type": "address"
        },
        {
          "internalType": "uint256",
          "name": "swapAmountInWei",
          "type": "uint256"
        }
      ],
      "name": "swapExactETHForTokens",
      "outputs": [
        {
          "internalType": "uint256",
          "name": "",
          "type": "uint256"
        }
      ],
      "stateMutability": "payable",
      "type": "function",
      "payable": true
    },
    {
      "inputs": [
        {
          "internalType": "address",
          "name": "userAddress",
          "type": "address"
        }
      ],
      "name": "getBalanceInWei",
      "outputs": [
        {
          "internalType": "uint256",
          "name": "",
          "type": "uint256"
        }
      ],
      "stateMutability": "view",
      "type": "function",
      "constant": true
    },
    {
      "inputs": [
        {
          "internalType": "uint256",
          "name": "_withdrawAmountInWei",
          "type": "uint256"
        }
      ],
      "name": "withdraw",
      "outputs": [
        {
          "internalType": "bool",
          "name": "",
          "type": "bool"
        }
      ],
      "stateMutability": "payable",
      "type": "function",
      "payable": true
    },
    {
      "inputs": [
        {
          "internalType": "uint256",
          "name": "_withdrawAmountInWei",
          "type": "uint256"
        },
        {
          "internalType": "address",
          "name": "erc20TokenAddress",
          "type": "address"
        }
      ],
      "name": "withdrawInERC20",
      "outputs": [
        {
          "internalType": "bool",
          "name": "",
          "type": "bool"
        }
      ],
      "stateMutability": "payable",
      "type": "function",
      "payable": true
    }
  ],
  "bytecode": "0x60806040523480156200001157600080fd5b506040516200308738038062003087833981810160405281019062000037919062000122565b600160008190555082600160006101000a81548173ffffffffffffffffffffffffffffffffffffffff021916908373ffffffffffffffffffffffffffffffffffffffff16021790555081600260006101000a81548173ffffffffffffffffffffffffffffffffffffffff021916908373ffffffffffffffffffffffffffffffffffffffff16021790555080600360006101000a81548173ffffffffffffffffffffffffffffffffffffffff021916908373ffffffffffffffffffffffffffffffffffffffff160217905550505050620001c6565b6000815190506200011c81620001ac565b92915050565b6000806000606084860312156200013857600080fd5b600062000148868287016200010b565b93505060206200015b868287016200010b565b92505060406200016e868287016200010b565b9150509250925092565b600062000185826200018c565b9050919050565b600073ffffffffffffffffffffffffffffffffffffffff82169050919050565b620001b78162000178565b8114620001c357600080fd5b50565b612eb180620001d66000396000f3fe6080604052600436106100e15760003560e01c8063b79c48e51161007f578063de27bc9c11610059578063de27bc9c1461029b578063e231bff0146102cb578063e252e75b146102f6578063eb43a7dc14610333576100e8565b8063b79c48e514610215578063bac03cd714610245578063be68850d14610270576100e8565b80636f9fb98a116100bb5780636f9fb98a1461018a5780637f565a0b146101b55780638f81341c146101e0578063b163cc381461020b576100e8565b80632e1a7d4d146100ed578063334280381461011d5780636d8c428d1461014d576100e8565b366100e857005b600080fd5b610107600480360381019061010291906123e2565b610363565b60405161011491906128bd565b60405180910390f35b610137600480360381019061013291906122fb565b6106b8565b6040516101449190612a94565b60405180910390f35b34801561015957600080fd5b50610174600480360381019061016f91906122d2565b610bb3565b6040516101819190612a94565b60405180910390f35b34801561019657600080fd5b5061019f610c1b565b6040516101ac9190612a94565b60405180910390f35b3480156101c157600080fd5b506101ca610c25565b6040516101d79190612a94565b60405180910390f35b3480156101ec57600080fd5b506101f5610c2b565b6040516102029190612a94565b60405180910390f35b610213610c31565b005b61022f600480360381019061022a91906122fb565b610d73565b60405161023c9190612a94565b60405180910390f35b34801561025157600080fd5b5061025a611187565b6040516102679190612a94565b60405180910390f35b34801561027c57600080fd5b5061028561118d565b6040516102929190612a94565b60405180910390f35b6102b560048036038101906102b09190612434565b611193565b6040516102c291906128bd565b60405180910390f35b3480156102d757600080fd5b506102e06115be565b6040516102ed9190612a94565b60405180910390f35b34801561030257600080fd5b5061031d600480360381019061031891906122d2565b6115c4565b60405161032a9190612a94565b60405180910390f35b61034d600480360381019061034891906122fb565b611658565b60405161035a91906128bd565b60405180910390f35b6000600260005414156103ab576040517f08c379a00000000000000000000000000000000000000000000000000000000081526004016103a290612a54565b60405180910390fd5b60026000819055506103bc33610bb3565b8211156103fe576040517f08c379a00000000000000000000000000000000000000000000000000000000081526004016103f590612a74565b60405180910390fd5b6000610408611a0d565b610410611a2e565b670de0b6b3a7640000856104249190612c7d565b61042e9190612c4c565b6104389190612c4c565b90506000670de0b6b3a764000061044d611a2e565b856104589190612c4c565b6104629190612c4c565b905080600a60003373ffffffffffffffffffffffffffffffffffffffff1673ffffffffffffffffffffffffffffffffffffffff16815260200190815260200160002060008282546104b39190612cd7565b9250508190555080600460008282546104cc9190612cd7565b925050819055506000479050600260009054906101000a900473ffffffffffffffffffffffffffffffffffffffff1673ffffffffffffffffffffffffffffffffffffffff1663db006a75846040518263ffffffff1660e01b81526004016105339190612a94565b602060405180830381600087803b15801561054d57600080fd5b505af1158015610561573d6000803e3d6000fd5b505050506040513d601f19601f82011682018060405250810190610585919061240b565b50600047905061059e8282611a6290919063ffffffff16565b60088190555060003373ffffffffffffffffffffffffffffffffffffffff166008546040516105cc90612804565b60006040518083038185875af1925050503d8060008114610609576040519150601f19603f3d011682016040523d82523d6000602084013e61060e565b606091505b5050905080610652576040517f08c379a000000000000000000000000000000000000000000000000000000000815260040161064990612a14565b60405180910390fd5b3373ffffffffffffffffffffffffffffffffffffffff167f4782f77965c38231498ae8f7375c6edf1712040386ba4c4954d8a15913f7482c60085460405161069a9190612a94565b60405180910390a26001955050505050506001600081905550919050565b60006106d98373ffffffffffffffffffffffffffffffffffffffff16611a78565b610718576040517f08c379a000000000000000000000000000000000000000000000000000000000815260040161070f90612954565b60405180910390fd5b60008373ffffffffffffffffffffffffffffffffffffffff166370a08231306040518263ffffffff1660e01b81526004016107539190612819565b60206040518083038186803b15801561076b57600080fd5b505afa15801561077f573d6000803e3d6000fd5b505050506040513d601f19601f820116820180604052508101906107a3919061240b565b116107e3576040517f08c379a00000000000000000000000000000000000000000000000000000000081526004016107da90612994565b60405180910390fd5b8273ffffffffffffffffffffffffffffffffffffffff1663095ea7b3600160009054906101000a900473ffffffffffffffffffffffffffffffffffffffff16846040518363ffffffff1660e01b8152600401610840929190612894565b602060405180830381600087803b15801561085a57600080fd5b505af115801561086e573d6000803e3d6000fd5b505050506040513d601f19601f820116820180604052508101906108929190612378565b5060008373ffffffffffffffffffffffffffffffffffffffff1663dd62ed3e30600160009054906101000a900473ffffffffffffffffffffffffffffffffffffffff166040518363ffffffff1660e01b81526004016108f2929190612834565b60206040518083038186803b15801561090a57600080fd5b505afa15801561091e573d6000803e3d6000fd5b505050506040513d601f19601f82011682018060405250810190610942919061240b565b90506000600267ffffffffffffffff811115610987577f4e487b7100000000000000000000000000000000000000000000000000000000600052604160045260246000fd5b6040519080825280602002602001820160405280156109b55781602001602082028036833780820191505090505b50905084816000815181106109f3577f4e487b7100000000000000000000000000000000000000000000000000000000600052603260045260246000fd5b602002602001019073ffffffffffffffffffffffffffffffffffffffff16908173ffffffffffffffffffffffffffffffffffffffff1681525050600360009054906101000a900473ffffffffffffffffffffffffffffffffffffffff1681600181518110610a8a577f4e487b7100000000000000000000000000000000000000000000000000000000600052603260045260246000fd5b602002602001019073ffffffffffffffffffffffffffffffffffffffff16908173ffffffffffffffffffffffffffffffffffffffff168152505060006005819055506000479050600160009054906101000a900473ffffffffffffffffffffffffffffffffffffffff1673ffffffffffffffffffffffffffffffffffffffff166318cbafe58460008530426040518663ffffffff1660e01b8152600401610b35959493929190612aaf565b600060405180830381600087803b158015610b4f57600080fd5b505af1158015610b63573d6000803e3d6000fd5b505050506040513d6000823e3d601f19601f82011682018060405250810190610b8c9190612337565b5060004790508181610b9e9190612cd7565b60058190555060055494505050505092915050565b6000600454600a60008473ffffffffffffffffffffffffffffffffffffffff1673ffffffffffffffffffffffffffffffffffffffff16815260200190815260200160002054610c00611a8b565b610c0a9190612c7d565b610c149190612c4c565b9050919050565b6000600454905090565b60095481565b60055481565b34600a60003373ffffffffffffffffffffffffffffffffffffffff1673ffffffffffffffffffffffffffffffffffffffff1681526020019081526020016000206000828254610c809190612bf6565b925050819055503460046000828254610c999190612bf6565b92505081905550600260009054906101000a900473ffffffffffffffffffffffffffffffffffffffff1673ffffffffffffffffffffffffffffffffffffffff16631249c58b346040518263ffffffff1660e01b81526004016000604051808303818588803b158015610d0a57600080fd5b505af1158015610d1e573d6000803e3d6000fd5b50505050503373ffffffffffffffffffffffffffffffffffffffff167f2e59905494f1e60b2876ba29207f3543b42530e3c8f3f83cd7091599cef3a5fa34604051610d699190612a94565b60405180910390a2565b6000610d948373ffffffffffffffffffffffffffffffffffffffff16611a78565b610dd3576040517f08c379a0000000000000000000000000000000000000000000000000000000008152600401610dca90612954565b60405180910390fd5b60004711610e16576040517f08c379a0000000000000000000000000000000000000000000000000000000008152600401610e0d90612a34565b60405180910390fd5b6000600267ffffffffffffffff811115610e59577f4e487b7100000000000000000000000000000000000000000000000000000000600052604160045260246000fd5b604051908082528060200260200182016040528015610e875781602001602082028036833780820191505090505b509050600360009054906101000a900473ffffffffffffffffffffffffffffffffffffffff1681600081518110610ee7577f4e487b7100000000000000000000000000000000000000000000000000000000600052603260045260246000fd5b602002602001019073ffffffffffffffffffffffffffffffffffffffff16908173ffffffffffffffffffffffffffffffffffffffff16815250508381600181518110610f5c577f4e487b7100000000000000000000000000000000000000000000000000000000600052603260045260246000fd5b602002602001019073ffffffffffffffffffffffffffffffffffffffff16908173ffffffffffffffffffffffffffffffffffffffff16815250506000808573ffffffffffffffffffffffffffffffffffffffff166370a08231306040518263ffffffff1660e01b8152600401610fd29190612819565b60206040518083038186803b158015610fea57600080fd5b505afa158015610ffe573d6000803e3d6000fd5b505050506040513d601f19601f82011682018060405250810190611022919061240b565b9050600160009054906101000a900473ffffffffffffffffffffffffffffffffffffffff1673ffffffffffffffffffffffffffffffffffffffff16637ff36ab58660008630426040518663ffffffff1660e01b815260040161108794939291906128d8565b6000604051808303818588803b1580156110a057600080fd5b505af11580156110b4573d6000803e3d6000fd5b50505050506040513d6000823e3d601f19601f820116820180604052508101906110de9190612337565b5060008673ffffffffffffffffffffffffffffffffffffffff166370a08231306040518263ffffffff1660e01b815260040161111a9190612819565b60206040518083038186803b15801561113257600080fd5b505afa158015611146573d6000803e3d6000fd5b505050506040513d601f19601f8201168201806040525081019061116a919061240b565b905081816111789190612cd7565b92508294505050505092915050565b60045481565b60065481565b6000600260005414156111db576040517f08c379a00000000000000000000000000000000000000000000000000000000081526004016111d290612a54565b60405180910390fd5b60026000819055506112028273ffffffffffffffffffffffffffffffffffffffff16611a78565b611241576040517f08c379a000000000000000000000000000000000000000000000000000000000815260040161123890612954565b60405180910390fd5b61124a33610bb3565b83111561128c576040517f08c379a000000000000000000000000000000000000000000000000000000000815260040161128390612a74565b60405180910390fd5b6000611296611a0d565b61129e611a2e565b670de0b6b3a7640000866112b29190612c7d565b6112bc9190612c4c565b6112c69190612c4c565b90506000670de0b6b3a76400006112db611a2e565b866112e69190612c4c565b6112f09190612c4c565b905080600a60003373ffffffffffffffffffffffffffffffffffffffff1673ffffffffffffffffffffffffffffffffffffffff16815260200190815260200160002060008282546113419190612cd7565b92505081905550806004600082825461135a9190612cd7565b925050819055506000479050600260009054906101000a900473ffffffffffffffffffffffffffffffffffffffff1673ffffffffffffffffffffffffffffffffffffffff1663db006a75846040518263ffffffff1660e01b81526004016113c19190612a94565b602060405180830381600087803b1580156113db57600080fd5b505af11580156113ef573d6000803e3d6000fd5b505050506040513d601f19601f82011682018060405250810190611413919061240b565b50600047905061142c8282611a6290919063ffffffff16565b60088190555061143e86600854610d73565b6009819055508573ffffffffffffffffffffffffffffffffffffffff1663a9059cbb336009546040518363ffffffff1660e01b8152600401611481929190612894565b602060405180830381600087803b15801561149b57600080fd5b505af11580156114af573d6000803e3d6000fd5b505050506040513d601f19601f820116820180604052508101906114d39190612378565b503373ffffffffffffffffffffffffffffffffffffffff167f4fa4e32c83d67537b027210097a3e2fc85769101ebc60b8f6618371d796bfcfa8773ffffffffffffffffffffffffffffffffffffffff166395d89b416040518163ffffffff1660e01b815260040160006040518083038186803b15801561155257600080fd5b505afa158015611566573d6000803e3d6000fd5b505050506040513d6000823e3d601f19601f8201168201806040525081019061158f91906123a1565b6009546040516115a0929190612924565b60405180910390a26001945050505050600160008190555092915050565b60085481565b60008173ffffffffffffffffffffffffffffffffffffffff1663dd62ed3e33306040518363ffffffff1660e01b8152600401611601929190612834565b60206040518083038186803b15801561161957600080fd5b505afa15801561162d573d6000803e3d6000fd5b505050506040513d601f19601f82011682018060405250810190611651919061240b565b9050919050565b60006116798373ffffffffffffffffffffffffffffffffffffffff16611a78565b6116b8576040517f08c379a00000000000000000000000000000000000000000000000000000000081526004016116af90612954565b60405180910390fd5b818373ffffffffffffffffffffffffffffffffffffffff166370a08231336040518263ffffffff1660e01b81526004016116f29190612819565b60206040518083038186803b15801561170a57600080fd5b505afa15801561171e573d6000803e3d6000fd5b505050506040513d601f19601f82011682018060405250810190611742919061240b565b1015611783576040517f08c379a000000000000000000000000000000000000000000000000000000000815260040161177a906129b4565b60405180910390fd5b818373ffffffffffffffffffffffffffffffffffffffff1663dd62ed3e33306040518363ffffffff1660e01b81526004016117bf929190612834565b60206040518083038186803b1580156117d757600080fd5b505afa1580156117eb573d6000803e3d6000fd5b505050506040513d601f19601f8201168201806040525081019061180f919061240b565b1015611850576040517f08c379a000000000000000000000000000000000000000000000000000000000815260040161184790612974565b60405180910390fd5b60008211611893576040517f08c379a000000000000000000000000000000000000000000000000000000000815260040161188a906129d4565b60405180910390fd5b61189d8383611bfa565b60008290506118ac84826106b8565b600581905550600554600a60003373ffffffffffffffffffffffffffffffffffffffff1673ffffffffffffffffffffffffffffffffffffffff16815260200190815260200160002060008282546119039190612bf6565b925050819055506005546004600082825461191e9190612bf6565b92505081905550611930600554611d67565b3373ffffffffffffffffffffffffffffffffffffffff167f738fa77af3b80365575d39b0df2dc861cb2d6ab87ef1eeb8602b7f4a2b1ae8a78573ffffffffffffffffffffffffffffffffffffffff166395d89b416040518163ffffffff1660e01b815260040160006040518083038186803b1580156119ae57600080fd5b505afa1580156119c2573d6000803e3d6000fd5b505050506040513d6000823e3d601f19601f820116820180604052508101906119eb91906123a1565b856040516119fa929190612924565b60405180910390a2600191505092915050565b6000611a17611f5f565b611a1f610c1b565b611a299190612c4c565b905090565b6000611a38610c1b565b670de0b6b3a7640000611a49612011565b611a539190612c7d565b611a5d9190612c4c565b905090565b60008183611a709190612cd7565b905092915050565b600080823b905060008111915050919050565b6000670de0b6b3a7640000600260009054906101000a900473ffffffffffffffffffffffffffffffffffffffff1673ffffffffffffffffffffffffffffffffffffffff1663182df0f56040518163ffffffff1660e01b815260040160206040518083038186803b158015611afe57600080fd5b505afa158015611b12573d6000803e3d6000fd5b505050506040513d601f19601f82011682018060405250810190611b36919061240b565b600260009054906101000a900473ffffffffffffffffffffffffffffffffffffffff1673ffffffffffffffffffffffffffffffffffffffff166370a08231306040518263ffffffff1660e01b8152600401611b919190612819565b60206040518083038186803b158015611ba957600080fd5b505afa158015611bbd573d6000803e3d6000fd5b505050506040513d601f19601f82011682018060405250810190611be1919061240b565b611beb9190612c7d565b611bf59190612c4c565b905090565b600081905060008373ffffffffffffffffffffffffffffffffffffffff166323b872dd3330856040518463ffffffff1660e01b8152600401611c3e9392919061285d565b602060405180830381600087803b158015611c5857600080fd5b505af1158015611c6c573d6000803e3d6000fd5b505050506040513d601f19601f82011682018060405250810190611c909190612378565b905080611cd2576040517f08c379a0000000000000000000000000000000000000000000000000000000008152600401611cc9906129f4565b60405180910390fd5b8373ffffffffffffffffffffffffffffffffffffffff166370a08231306040518263ffffffff1660e01b8152600401611d0b9190612819565b60206040518083038186803b158015611d2357600080fd5b505afa158015611d37573d6000803e3d6000fd5b505050506040513d601f19601f82011682018060405250810190611d5b919061240b565b60068190555050505050565b6000600260009054906101000a900473ffffffffffffffffffffffffffffffffffffffff1673ffffffffffffffffffffffffffffffffffffffff166370a08231306040518263ffffffff1660e01b8152600401611dc49190612819565b60206040518083038186803b158015611ddc57600080fd5b505afa158015611df0573d6000803e3d6000fd5b505050506040513d601f19601f82011682018060405250810190611e14919061240b565b9050600260009054906101000a900473ffffffffffffffffffffffffffffffffffffffff1673ffffffffffffffffffffffffffffffffffffffff16631249c58b836040518263ffffffff1660e01b81526004016000604051808303818588803b158015611e8057600080fd5b505af1158015611e94573d6000803e3d6000fd5b50505050506000600260009054906101000a900473ffffffffffffffffffffffffffffffffffffffff1673ffffffffffffffffffffffffffffffffffffffff166370a08231306040518263ffffffff1660e01b8152600401611ef69190612819565b60206040518083038186803b158015611f0e57600080fd5b505afa158015611f22573d6000803e3d6000fd5b505050506040513d601f19601f82011682018060405250810190611f46919061240b565b90508181611f549190612cd7565b600781905550505050565b6000600260009054906101000a900473ffffffffffffffffffffffffffffffffffffffff1673ffffffffffffffffffffffffffffffffffffffff166370a08231306040518263ffffffff1660e01b8152600401611fbc9190612819565b60206040518083038186803b158015611fd457600080fd5b505afa158015611fe8573d6000803e3d6000fd5b505050506040513d601f19601f8201168201806040525081019061200c919061240b565b905090565b6000670de0b6b3a7640000600260009054906101000a900473ffffffffffffffffffffffffffffffffffffffff1673ffffffffffffffffffffffffffffffffffffffff1663182df0f56040518163ffffffff1660e01b815260040160206040518083038186803b15801561208457600080fd5b505afa158015612098573d6000803e3d6000fd5b505050506040513d601f19601f820116820180604052508101906120bc919061240b565b600260009054906101000a900473ffffffffffffffffffffffffffffffffffffffff1673ffffffffffffffffffffffffffffffffffffffff166370a08231306040518263ffffffff1660e01b81526004016121179190612819565b60206040518083038186803b15801561212f57600080fd5b505afa158015612143573d6000803e3d6000fd5b505050506040513d601f19601f82011682018060405250810190612167919061240b565b6121719190612c7d565b61217b9190612c4c565b905090565b600061219361218e84612b3a565b612b09565b905080838252602082019050828560208602820111156121b257600080fd5b60005b858110156121e257816121c888826122bd565b8452602084019350602083019250506001810190506121b5565b5050509392505050565b60006121ff6121fa84612b66565b612b09565b90508281526020810184848401111561221757600080fd5b612222848285612d65565b509392505050565b60008135905061223981612e36565b92915050565b600082601f83011261225057600080fd5b8151612260848260208601612180565b91505092915050565b60008151905061227881612e4d565b92915050565b600082601f83011261228f57600080fd5b815161229f8482602086016121ec565b91505092915050565b6000813590506122b781612e64565b92915050565b6000815190506122cc81612e64565b92915050565b6000602082840312156122e457600080fd5b60006122f28482850161222a565b91505092915050565b6000806040838503121561230e57600080fd5b600061231c8582860161222a565b925050602061232d858286016122a8565b9150509250929050565b60006020828403121561234957600080fd5b600082015167ffffffffffffffff81111561236357600080fd5b61236f8482850161223f565b91505092915050565b60006020828403121561238a57600080fd5b600061239884828501612269565b91505092915050565b6000602082840312156123b357600080fd5b600082015167ffffffffffffffff8111156123cd57600080fd5b6123d98482850161227e565b91505092915050565b6000602082840312156123f457600080fd5b6000612402848285016122a8565b91505092915050565b60006020828403121561241d57600080fd5b600061242b848285016122bd565b91505092915050565b6000806040838503121561244757600080fd5b6000612455858286016122a8565b92505060206124668582860161222a565b9150509250929050565b600061247c8383612488565b60208301905092915050565b61249181612d0b565b82525050565b6124a081612d0b565b82525050565b60006124b182612ba6565b6124bb8185612bc9565b93506124c683612b96565b8060005b838110156124f75781516124de8882612470565b97506124e983612bbc565b9250506001810190506124ca565b5085935050505092915050565b61250d81612d1d565b82525050565b61251c81612d53565b82525050565b600061252d82612bb1565b6125378185612be5565b9350612547818560208601612d65565b61255081612e25565b840191505092915050565b6000612568601c83612be5565b91507f6e6f7420612076616c696420636f6e74726163742061646472657373000000006000830152602082019050919050565b60006125a8601683612be5565b91507f696e73756666696369656e7420616c6c6f77616e6365000000000000000000006000830152602082019050919050565b60006125e8601b83612be5565b91507f696e73756666696369656e7420746f6b656e7320746f207377617000000000006000830152602082019050919050565b6000612628601383612be5565b91507f696e73756666696369656e7420616d6f756e74000000000000000000000000006000830152602082019050919050565b6000612668602083612be5565b91507f416d6f756e74206d7573742062652067726561746572207468616e207a65726f6000830152602082019050919050565b60006126a8601983612be5565b91507f455243323020746f6b656e206465706f736974206661696c73000000000000006000830152602082019050919050565b60006126e8601483612be5565b91507f6661696c656420746f2073656e642065746865720000000000000000000000006000830152602082019050919050565b6000612728601883612be5565b91507f696e73756666696369656e742045544820746f207377617000000000000000006000830152602082019050919050565b6000612768600083612bda565b9150600082019050919050565b6000612782601f83612be5565b91507f5265656e7472616e637947756172643a207265656e7472616e742063616c6c006000830152602082019050919050565b60006127c2600983612be5565b91507f6f766572647261776e00000000000000000000000000000000000000000000006000830152602082019050919050565b6127fe81612d49565b82525050565b600061280f8261275b565b9150819050919050565b600060208201905061282e6000830184612497565b92915050565b60006040820190506128496000830185612497565b6128566020830184612497565b9392505050565b60006060820190506128726000830186612497565b61287f6020830185612497565b61288c60408301846127f5565b949350505050565b60006040820190506128a96000830185612497565b6128b660208301846127f5565b9392505050565b60006020820190506128d26000830184612504565b92915050565b60006080820190506128ed6000830187612513565b81810360208301526128ff81866124a6565b905061290e6040830185612497565b61291b60608301846127f5565b95945050505050565b6000604082019050818103600083015261293e8185612522565b905061294d60208301846127f5565b9392505050565b6000602082019050818103600083015261296d8161255b565b9050919050565b6000602082019050818103600083015261298d8161259b565b9050919050565b600060208201905081810360008301526129ad816125db565b9050919050565b600060208201905081810360008301526129cd8161261b565b9050919050565b600060208201905081810360008301526129ed8161265b565b9050919050565b60006020820190508181036000830152612a0d8161269b565b9050919050565b60006020820190508181036000830152612a2d816126db565b9050919050565b60006020820190508181036000830152612a4d8161271b565b9050919050565b60006020820190508181036000830152612a6d81612775565b9050919050565b60006020820190508181036000830152612a8d816127b5565b9050919050565b6000602082019050612aa960008301846127f5565b92915050565b600060a082019050612ac460008301886127f5565b612ad16020830187612513565b8181036040830152612ae381866124a6565b9050612af26060830185612497565b612aff60808301846127f5565b9695505050505050565b6000604051905081810181811067ffffffffffffffff82111715612b3057612b2f612df6565b5b8060405250919050565b600067ffffffffffffffff821115612b5557612b54612df6565b5b602082029050602081019050919050565b600067ffffffffffffffff821115612b8157612b80612df6565b5b601f19601f8301169050602081019050919050565b6000819050602082019050919050565b600081519050919050565b600081519050919050565b6000602082019050919050565b600082825260208201905092915050565b600081905092915050565b600082825260208201905092915050565b6000612c0182612d49565b9150612c0c83612d49565b9250827fffffffffffffffffffffffffffffffffffffffffffffffffffffffffffffffff03821115612c4157612c40612d98565b5b828201905092915050565b6000612c5782612d49565b9150612c6283612d49565b925082612c7257612c71612dc7565b5b828204905092915050565b6000612c8882612d49565b9150612c9383612d49565b9250817fffffffffffffffffffffffffffffffffffffffffffffffffffffffffffffffff0483118215151615612ccc57612ccb612d98565b5b828202905092915050565b6000612ce282612d49565b9150612ced83612d49565b925082821015612d0057612cff612d98565b5b828203905092915050565b6000612d1682612d29565b9050919050565b60008115159050919050565b600073ffffffffffffffffffffffffffffffffffffffff82169050919050565b6000819050919050565b6000612d5e82612d49565b9050919050565b60005b83811015612d83578082015181840152602081019050612d68565b83811115612d92576000848401525b50505050565b7f4e487b7100000000000000000000000000000000000000000000000000000000600052601160045260246000fd5b7f4e487b7100000000000000000000000000000000000000000000000000000000600052601260045260246000fd5b7f4e487b7100000000000000000000000000000000000000000000000000000000600052604160045260246000fd5b6000601f19601f8301169050919050565b612e3f81612d0b565b8114612e4a57600080fd5b50565b612e5681612d1d565b8114612e6157600080fd5b50565b612e6d81612d49565b8114612e7857600080fd5b5056fea26469706673582212201f24f0adc55e0ff21add3e63eb83e839da3a16420ca856def7fc454137bc017364736f6c63430008000033",
  "immutableReferences": {},
  "source": "//SPDX-License-Identifier: UNLICENSED\r\n\r\npragma solidity ^0.8.0;\r\n\r\n\r\ninterface cETH {\r\n    \r\n    // define functions of COMPOUND to use\r\n    \r\n    function mint() external payable; // to deposit to compound\r\n    function mint(uint mintAmount) external payable returns (uint);\r\n    function redeem(uint redeemTokens) external returns (uint); // to withdraw from compound\r\n    \r\n    //following 2 functions to determine how much you'll be able to withdraw\r\n    function exchangeRateStored() external view returns (uint); \r\n    function balanceOf(address owner) external view returns (uint256 balance);\r\n}\r\ninterface IUniswapV2Router01 {\r\n    function factory() external pure returns (address);\r\n    function WETH() external pure returns (address);\r\n    \r\n    function swapExactETHForTokens(uint amountOutMin, address[] calldata path, address to, uint deadline)\r\n        external\r\n        payable\r\n        returns (uint[] memory amounts);\r\n\r\n    function swapExactTokensForETH(uint amountIn, uint amountOutMin, address[] calldata path, address to, uint deadline)\r\n        external\r\n        returns (uint[] memory amounts);\r\n\r\n    function getAmountsOut(uint amountIn, address[] calldata path) external view returns (uint[] memory amounts);\r\n}\r\n\r\n\r\npragma solidity ^0.8.0;\r\n\r\ninterface IUniswapV2Router02 is IUniswapV2Router01 {\r\n\r\n    function swapExactETHForTokensSupportingFeeOnTransferTokens(\r\n        uint amountOutMin,\r\n        address[] calldata path,\r\n        address to,\r\n        uint deadline\r\n    ) external payable;\r\n    function swapExactTokensForETHSupportingFeeOnTransferTokens(\r\n        uint amountIn,\r\n        uint amountOutMin,\r\n        address[] calldata path,\r\n        address to,\r\n        uint deadline\r\n    ) external;\r\n    \r\n}\r\n\r\nimport '@openzeppelin/contracts/token/ERC20/ERC20.sol';\r\nimport '@openzeppelin/contracts/utils/Address.sol';\r\nimport '@openzeppelin/contracts/security/ReentrancyGuard.sol';\r\nimport '@openzeppelin/contracts/utils/math/SafeMath.sol';\r\n\r\npragma solidity ^0.8.0;\r\n\r\ncontract SmartBank is ReentrancyGuard {\r\n    using Address for address;\r\n    using SafeMath for uint256;\r\n\r\n    IUniswapV2Router02 uniswap;\r\n    cETH ceth;\r\n    address weth;\r\n    \r\n    constructor(address _uniswap, address _comp, address _weth) {\r\n        uniswap = IUniswapV2Router02(_uniswap);\r\n        ceth = cETH(_comp);\r\n        weth = _weth;\r\n    }\r\n\r\n    uint256 public totalContractBalance;\r\n    uint256 public depositAmountInETH;\r\n    uint256 public transferAmountERC20;\r\n    uint256 internal depositAmountInCeth;\r\n    \r\n    uint256 public redeemed;\r\n    uint256 public erc20TokenRedeemed;\r\n\r\n    mapping(address => uint) balances;\r\n    \r\n    event depositETH(address indexed _from, uint256 amountDeposited);\r\n    event depositERC20Token(address indexed depositor, string symbol, uint256 amountDeposited);\r\n    event withdrawETH(address indexed depositor, uint256 amountWithdrawn);\r\n    event withdrawERC20Token(address indexed _to, string symbol, uint256 amountWithdrawn);\r\n\r\n\r\n    function addBalance() public payable {\r\n        // to keep track of user's ETH balance\r\n        balances[msg.sender] += msg.value;\r\n        // to keep track of the contract's ETH balance\r\n        totalContractBalance += msg.value;\r\n        \r\n        //send ethers to mint()\r\n        ceth.mint{value: msg.value}();\r\n        emit depositETH(msg.sender, msg.value);\r\n    }\r\n    \r\n    // get the total amount deposited to this contract by various users\r\n    function getContractBalance() public view returns(uint256){\r\n        return totalContractBalance;\r\n    }\r\n    \r\n    // get the total amount deposited to Compound from this contract converted to wei\r\n    function getCompoundBalance() internal view returns(uint256) {\r\n        return ceth.balanceOf(address(this))*ceth.exchangeRateStored()/1e18;\r\n    }\r\n    \r\n    // get total amount of Ceth held by this contract\r\n    function getTotalCethAmount() internal view returns(uint256){\r\n        return ceth.balanceOf(address(this));\r\n    }\r\n    \r\n    // to calculate the conversion rate between amount deposited to this contract and amount available at Compound\r\n    // note the decimal handling - 1e18 has to be placed in the numerator before dividing by getContractBalance\r\n    function conversionRateCompToContract() internal view returns (uint256)  {\r\n        return getCompoundBalance()*1e18/getContractBalance();\r\n    }\r\n    \r\n    function conversionRateContractToCeth() internal view returns (uint256) {\r\n        return getContractBalance()/getTotalCethAmount();\r\n    }\r\n    \r\n    \r\n    // This function allows user to deposit ERC20 tokens to this contract\r\n    // This contract is formed of 3 functions - addTokens, swapExactTokensforETH and depositToCompound\r\n    // Upon receiving the ERC20 token, the function will swap the token into ETH on Uniswap\r\n    // Then, the ETH will be deposited to Compound to earn interest\r\n    // Due to the conversion from ERC20 token to ETH, it is possible that the value of amount in ETH could be less than the ERC20 token amount\r\n    function addBalanceERC20(address erc20TokenAddress, uint256 amountToDeposit) public payable returns (bool){\r\n        require(erc20TokenAddress.isContract(),\"not a valid contract address\");\r\n        require(ERC20(erc20TokenAddress).balanceOf(msg.sender)>= amountToDeposit, \"insufficient amount\");\r\n        require(ERC20(erc20TokenAddress).allowance(msg.sender,address(this))>= amountToDeposit, \"insufficient allowance\");\r\n        require(amountToDeposit > 0, 'Amount must be greater than zero');\r\n        \r\n        // get approval outside of smart contract first before depositing tokens\r\n        addTokens(erc20TokenAddress, amountToDeposit);\r\n        \r\n        uint depositTokens = amountToDeposit;\r\n        depositAmountInETH = swapExactTokensforETH(erc20TokenAddress, depositTokens);\r\n\r\n        // deposit amount to this contract\r\n        balances[msg.sender] += depositAmountInETH;\r\n        totalContractBalance += depositAmountInETH;\r\n        \r\n        depositToCompound(depositAmountInETH);\r\n\r\n        emit depositERC20Token(msg.sender, ERC20(erc20TokenAddress).symbol(), amountToDeposit);\r\n        return true;\r\n    }\r\n    \r\n    // this function allows user to deposit ETH available in this contract to Compound and then receive CETH in return\r\n    function depositToCompound(uint256 amountInETH) private {\r\n        uint256 cethBalanceBefore = ceth.balanceOf(address(this));\r\n        ceth.mint{value: amountInETH}();\r\n        uint256 cethBalanceAfter = ceth.balanceOf(address(this));\r\n        depositAmountInCeth = cethBalanceAfter- cethBalanceBefore; \r\n    }\r\n\r\n    \r\n    // this function enables user to deposit erc20 tokens to this contract after user has approved the amount\r\n    function addTokens (address erc20TokenAddress, uint256 amountToDeposit) private {\r\n        // user will have to approve the ERC20 token amount outside of the smart contract\r\n        uint256 depositTokens = amountToDeposit;\r\n        bool success = ERC20(erc20TokenAddress).transferFrom(msg.sender, address(this), depositTokens);\r\n        require(success, \"ERC20 token deposit fails\");\r\n        // this is added for sanity check\r\n        transferAmountERC20 = ERC20(erc20TokenAddress).balanceOf(address(this));\r\n    }\r\n    \r\n    // this function is to check the amount that has been approved by user\r\n    function getAllowanceERC20(address erc20TokenAddress) external view returns (uint256) {\r\n        return ERC20(erc20TokenAddress).allowance(msg.sender, address(this));\r\n    }\r\n    \r\n    // this function enables the contract to convert erc20 tokens into ETH to be deposited to Compound\r\n    function swapExactTokensforETH(address erc20TokenAddress, uint swapAmount) public payable returns (uint256) {\r\n        require(erc20TokenAddress.isContract(), \"not a valid contract address\");\r\n        require(ERC20(erc20TokenAddress).balanceOf(address(this))>0, \"insufficient tokens to swap\");\r\n        \r\n        ERC20(erc20TokenAddress).approve(address(uniswap),swapAmount);\r\n        uint256 allowedAmount = ERC20(erc20TokenAddress).allowance(address(this), address(uniswap));\r\n        \r\n        // generate the uniswap pair path of token -> weth\r\n        address[] memory path = new address[](2);\r\n        path[0] = erc20TokenAddress;\r\n        path[1] = weth;\r\n        \r\n        depositAmountInETH = 0;\r\n        uint ETHBalanceBeforeSwap = address(this).balance;\r\n        // make the swap\r\n        uniswap.swapExactTokensForETH(\r\n            allowedAmount,\r\n            0, // accept any amount of ETH\r\n            path,\r\n            address(this),\r\n            block.timestamp\r\n        );\r\n        \r\n        uint ETHBalanceAfterSwap = address(this).balance;\r\n        depositAmountInETH = ETHBalanceAfterSwap - ETHBalanceBeforeSwap;\r\n        return depositAmountInETH;\r\n    }\r\n\r\n    function swapExactETHForTokens(address erc20TokenAddress, uint256 swapAmountInWei) public payable returns (uint256) {\r\n        require(erc20TokenAddress.isContract(), \"not a valid contract address\");\r\n        require(address(this).balance>0, \"insufficient ETH to swap\");\r\n        \r\n        address[] memory path = new address[](2);\r\n        path[0] = weth;\r\n        path[1] = erc20TokenAddress;\r\n        \r\n        uint256 erc20TokenAmount = 0;\r\n        uint256 erc20TokenBeforeSwap = ERC20(erc20TokenAddress).balanceOf(address(this));\r\n        uniswap.swapExactETHForTokens{value: swapAmountInWei}(\r\n            0, // accept any amount of token\r\n            path,\r\n            address(this),\r\n            block.timestamp\r\n        );\r\n        uint256 erc20TokenAfterSwap = ERC20(erc20TokenAddress).balanceOf(address(this));\r\n        erc20TokenAmount = erc20TokenAfterSwap - erc20TokenBeforeSwap;\r\n        return erc20TokenAmount;\r\n    }\r\n    \r\n\r\n    // amount expressed in wei\r\n    function getBalanceInWei(address userAddress) public view returns (uint256) {\r\n        return getCethBalanceInWei() * balances[userAddress]/totalContractBalance;\r\n    }\r\n    \r\n    // amount expressed in wei\r\n    function getCethBalanceInWei () internal view returns (uint256) {\r\n        return ceth.balanceOf(address(this))*ceth.exchangeRateStored()/1e18;\r\n    }\r\n\r\n    function withdraw(uint256 _withdrawAmountInWei) public payable nonReentrant returns(bool) {\r\n        // check that the withdraw amount is less than the user's balance\r\n        require(_withdrawAmountInWei <= getBalanceInWei(msg.sender), \"overdrawn\");\r\n        \r\n        // convert amount to Ceth so that this contract can redeem from Compound\r\n        uint256 amountToRedeemInCeth = (_withdrawAmountInWei*1e18/conversionRateCompToContract())/conversionRateContractToCeth();\r\n        uint256 amountToRedeem = (_withdrawAmountInWei/conversionRateCompToContract())/1e18;\r\n        balances[msg.sender] -= amountToRedeem;\r\n        totalContractBalance -= amountToRedeem;\r\n        \r\n        \r\n        // record the amount before redeem\r\n        uint256 contractBalanceBeforeRedeem = address(this).balance;\r\n        \r\n        ceth.redeem(amountToRedeemInCeth);\r\n        \r\n        // record the amount after redeem\r\n        uint256 contractBalanceAfterRedeem = address(this).balance;\r\n        \r\n        redeemed = contractBalanceAfterRedeem.sub(contractBalanceBeforeRedeem);\r\n        \r\n        (bool sent,) = payable(msg.sender).call{value: redeemed}(\"\");\r\n        require(sent, \"failed to send ether\");\r\n\r\n        emit withdrawETH(msg.sender, redeemed);\r\n        return true;\r\n    }\r\n    \r\n    function withdrawInERC20 (uint _withdrawAmountInWei, address erc20TokenAddress) public payable nonReentrant returns (bool){\r\n        require(erc20TokenAddress.isContract(), \"not a valid contract address\");\r\n        require(_withdrawAmountInWei <= getBalanceInWei(msg.sender), \"overdrawn\");\r\n        \r\n        // convert amount to Ceth so that this contract can redeem from Compound\r\n        uint256 amountToRedeemInCeth = (_withdrawAmountInWei*1e18/conversionRateCompToContract())/conversionRateContractToCeth();\r\n        uint256 amountToRedeem = (_withdrawAmountInWei/conversionRateCompToContract())/1e18;\r\n        balances[msg.sender] -= amountToRedeem;\r\n        totalContractBalance -= amountToRedeem;\r\n        \r\n        \r\n        // record the amount before redeem\r\n        uint256 contractBalanceBeforeRedeem = address(this).balance;\r\n        \r\n        ceth.redeem(amountToRedeemInCeth);\r\n        \r\n        // record the amount after redeem\r\n        uint256 contractBalanceAfterRedeem = address(this).balance;\r\n        \r\n        redeemed = contractBalanceAfterRedeem.sub(contractBalanceBeforeRedeem);\r\n        \r\n        // convert the amount redeemed to ERC20 token\r\n        erc20TokenRedeemed = swapExactETHForTokens(erc20TokenAddress,redeemed);\r\n        ERC20(erc20TokenAddress).transfer(msg.sender, erc20TokenRedeemed);\r\n\r\n        emit withdrawERC20Token(msg.sender, ERC20(erc20TokenAddress).symbol(), erc20TokenRedeemed);\r\n        return true;\r\n    }\r\n    \r\n    receive() external payable {}\r\n    \r\n}\r\n",
  "sourcePath": "C:\\Users\\Francis\\Consensys Bootcamp\\finalproject\\smartbank\\src\\contracts\\SmartBank.sol",
  "compiler": {
    "name": "solc",
    "version": "0.8.0+commit.c7dfd78e.Emscripten.clang"
  },
  "schemaVersion": "3.4.3",
  "updatedAt": "2021-11-11T05:40:19.130Z",
  "networkType": "ethereum",
  "devdoc": {
    "kind": "dev",
    "methods": {},
    "version": 1
  },
  "userdoc": {
    "kind": "user",
    "methods": {},
    "version": 1
  }
}